{
  "_format": "hh-sol-artifact-1",
  "contractName": "PigiVest",
  "sourceName": "contracts/PigiVest.sol",
  "abi": [
    {
      "inputs": [
        {
          "internalType": "uint256",
          "name": "_unlockTime",
          "type": "uint256"
        }
      ],
      "stateMutability": "payable",
      "type": "constructor"
    },
    {
      "anonymous": false,
      "inputs": [
        {
          "indexed": false,
          "internalType": "uint256",
          "name": "amount",
          "type": "uint256"
        },
        {
          "indexed": false,
          "internalType": "uint256",
          "name": "when",
          "type": "uint256"
        }
      ],
      "name": "Deposit",
      "type": "event"
    },
    {
      "anonymous": false,
      "inputs": [
        {
          "indexed": false,
          "internalType": "uint256",
          "name": "amount",
          "type": "uint256"
        },
        {
          "indexed": false,
          "internalType": "uint256",
          "name": "when",
          "type": "uint256"
        }
      ],
      "name": "Withdrawal",
      "type": "event"
    },
    {
      "inputs": [
        {
          "internalType": "uint256",
          "name": "newUnlockTime",
          "type": "uint256"
        }
      ],
      "name": "adjustUnlockTime",
      "outputs": [],
      "stateMutability": "nonpayable",
      "type": "function"
    },
    {
      "inputs": [],
      "name": "deposit",
      "outputs": [],
      "stateMutability": "payable",
      "type": "function"
    },
    {
      "inputs": [],
      "name": "owner",
      "outputs": [
        {
          "internalType": "address payable",
          "name": "",
          "type": "address"
        }
      ],
      "stateMutability": "view",
      "type": "function"
    },
    {
      "inputs": [],
      "name": "unlockTime",
      "outputs": [
        {
          "internalType": "uint256",
          "name": "",
          "type": "uint256"
        }
      ],
      "stateMutability": "view",
      "type": "function"
    },
    {
      "inputs": [],
      "name": "withdraw",
      "outputs": [],
      "stateMutability": "nonpayable",
      "type": "function"
    }
  ],
  "bytecode": "0x6080604052604051610a77380380610a77833981810160405281019061002591906100f0565b804210610067576040517f08c379a000000000000000000000000000000000000000000000000000000000815260040161005e906101a0565b60405180910390fd5b8060008190555033600160006101000a81548173ffffffffffffffffffffffffffffffffffffffff021916908373ffffffffffffffffffffffffffffffffffffffff160217905550506101c0565b600080fd5b6000819050919050565b6100cd816100ba565b81146100d857600080fd5b50565b6000815190506100ea816100c4565b92915050565b600060208284031215610106576101056100b5565b5b6000610114848285016100db565b91505092915050565b600082825260208201905092915050565b7f556e6c6f636b2074696d652073686f756c6420626520696e207468652066757460008201527f7572650000000000000000000000000000000000000000000000000000000000602082015250565b600061018a60238361011d565b91506101958261012e565b604082019050919050565b600060208201905081810360008301526101b98161017d565b9050919050565b6108a8806101cf6000396000f3fe60806040526004361061004a5760003560e01c8063251c1aa31461004f5780633ccfd60b1461007a5780637f55ec8b146100915780638da5cb5b146100ba578063d0e30db0146100e5575b600080fd5b34801561005b57600080fd5b506100646100ef565b604051610071919061048f565b60405180910390f35b34801561008657600080fd5b5061008f6100f5565b005b34801561009d57600080fd5b506100b860048036038101906100b391906104db565b61026e565b005b3480156100c657600080fd5b506100cf61038e565b6040516100dc9190610549565b60405180910390f35b6100ed6103b4565b005b60005481565b60005442101561013a576040517f08c379a0000000000000000000000000000000000000000000000000000000008152600401610131906105c1565b60405180910390fd5b600160009054906101000a900473ffffffffffffffffffffffffffffffffffffffff1673ffffffffffffffffffffffffffffffffffffffff163373ffffffffffffffffffffffffffffffffffffffff16146101ca576040517f08c379a00000000000000000000000000000000000000000000000000000000081526004016101c19061062d565b60405180910390fd5b7fbf2ed60bd5b5965d685680c01195c9514e4382e28e3a5a2d2d5244bf59411b9347426040516101fb92919061064d565b60405180910390a1600160009054906101000a900473ffffffffffffffffffffffffffffffffffffffff1673ffffffffffffffffffffffffffffffffffffffff166108fc479081150290604051600060405180830381858888f1935050505015801561026b573d6000803e3d6000fd5b50565b600160009054906101000a900473ffffffffffffffffffffffffffffffffffffffff1673ffffffffffffffffffffffffffffffffffffffff163373ffffffffffffffffffffffffffffffffffffffff16146102fe576040517f08c379a00000000000000000000000000000000000000000000000000000000081526004016102f59061062d565b60405180910390fd5b428111610340576040517f08c379a0000000000000000000000000000000000000000000000000000000008152600401610337906106e8565b60405180910390fd5b6000548111610384576040517f08c379a000000000000000000000000000000000000000000000000000000000815260040161037b9061077a565b60405180910390fd5b8060008190555050565b600160009054906101000a900473ffffffffffffffffffffffffffffffffffffffff1681565b600034116103f7576040517f08c379a00000000000000000000000000000000000000000000000000000000081526004016103ee906107e6565b60405180910390fd5b600054421061043b576040517f08c379a000000000000000000000000000000000000000000000000000000000815260040161043290610852565b60405180910390fd5b7fa3af609bf46297028ce551832669030f9effef2b02606d02cbbcc40fe6b47c55344260405161046c92919061064d565b60405180910390a1565b6000819050919050565b61048981610476565b82525050565b60006020820190506104a46000830184610480565b92915050565b600080fd5b6104b881610476565b81146104c357600080fd5b50565b6000813590506104d5816104af565b92915050565b6000602082840312156104f1576104f06104aa565b5b60006104ff848285016104c6565b91505092915050565b600073ffffffffffffffffffffffffffffffffffffffff82169050919050565b600061053382610508565b9050919050565b61054381610528565b82525050565b600060208201905061055e600083018461053a565b92915050565b600082825260208201905092915050565b7f596f752063616e27742077697468647261772079657400000000000000000000600082015250565b60006105ab601683610564565b91506105b682610575565b602082019050919050565b600060208201905081810360008301526105da8161059e565b9050919050565b7f596f75206172656e277420746865206f776e6572000000000000000000000000600082015250565b6000610617601483610564565b9150610622826105e1565b602082019050919050565b600060208201905081810360008301526106468161060a565b9050919050565b60006040820190506106626000830185610480565b61066f6020830184610480565b9392505050565b7f4e657720756e6c6f636b2074696d65206d75737420626520696e20746865206660008201527f7574757265000000000000000000000000000000000000000000000000000000602082015250565b60006106d2602583610564565b91506106dd82610676565b604082019050919050565b60006020820190508181036000830152610701816106c5565b9050919050565b7f4e657720756e6c6f636b2074696d65206d757374206265206c6174657220746860008201527f616e2063757272656e7400000000000000000000000000000000000000000000602082015250565b6000610764602a83610564565b915061076f82610708565b604082019050919050565b6000602082019050818103600083015261079381610757565b9050919050565b7f4d7573742073656e6420736f6d65206574686572000000000000000000000000600082015250565b60006107d0601483610564565b91506107db8261079a565b602082019050919050565b600060208201905081810360008301526107ff816107c3565b9050919050565b7f43616e6e6f74206465706f73697420616674657220756e6c6f636b2074696d65600082015250565b600061083c602083610564565b915061084782610806565b602082019050919050565b6000602082019050818103600083015261086b8161082f565b905091905056fea26469706673582212207f658a2b96057c91edb1ac7f7336ea9862c4ace4ed58ca682550086b68b083ec64736f6c63430008170033",
  "linkReferences": {},
  "deployedLinkReferences": {}
}