{
  "_format": "hh-sol-artifact-1",
  "contractName": "MultiSigWallet",
  "sourceName": "contracts/MultiSigWallet.sol",
  "abi": [
    {
      "inputs": [
        {
          "internalType": "address[]",
          "name": "_owners",
          "type": "address[]"
        },
        {
          "internalType": "uint256",
          "name": "_requiredConfirmations",
          "type": "uint256"
        }
      ],
      "stateMutability": "nonpayable",
      "type": "constructor"
    },
    {
      "inputs": [],
      "name": "DuplicateOwner",
      "type": "error"
    },
    {
      "inputs": [],
      "name": "InsufficientConfirmations",
      "type": "error"
    },
    {
      "inputs": [],
      "name": "InvalidOwner",
      "type": "error"
    },
    {
      "inputs": [],
      "name": "InvalidRequiredConfirmations",
      "type": "error"
    },
    {
      "inputs": [],
      "name": "NotOwner",
      "type": "error"
    },
    {
      "inputs": [],
      "name": "TransactionAlreadyConfirmed",
      "type": "error"
    },
    {
      "inputs": [],
      "name": "TransactionAlreadyExecuted",
      "type": "error"
    },
    {
      "inputs": [],
      "name": "TransactionFailed",
      "type": "error"
    },
    {
      "inputs": [],
      "name": "TransactionNotConfirmed",
      "type": "error"
    },
    {
      "inputs": [],
      "name": "TransactionNotExists",
      "type": "error"
    },
    {
      "inputs": [],
      "name": "ZeroAddress",
      "type": "error"
    },
    {
      "anonymous": false,
      "inputs": [
        {
          "indexed": true,
          "internalType": "address",
          "name": "sender",
          "type": "address"
        },
        {
          "indexed": false,
          "internalType": "uint256",
          "name": "value",
          "type": "uint256"
        }
      ],
      "name": "Deposit",
      "type": "event"
    },
    {
      "anonymous": false,
      "inputs": [
        {
          "indexed": true,
          "internalType": "uint256",
          "name": "txId",
          "type": "uint256"
        },
        {
          "indexed": true,
          "internalType": "address",
          "name": "owner",
          "type": "address"
        }
      ],
      "name": "TransactionConfirmed",
      "type": "event"
    },
    {
      "anonymous": false,
      "inputs": [
        {
          "indexed": true,
          "internalType": "uint256",
          "name": "txId",
          "type": "uint256"
        }
      ],
      "name": "TransactionExecuted",
      "type": "event"
    },
    {
      "anonymous": false,
      "inputs": [
        {
          "indexed": true,
          "internalType": "uint256",
          "name": "txId",
          "type": "uint256"
        },
        {
          "indexed": true,
          "internalType": "address",
          "name": "owner",
          "type": "address"
        }
      ],
      "name": "TransactionRevoked",
      "type": "event"
    },
    {
      "anonymous": false,
      "inputs": [
        {
          "indexed": true,
          "internalType": "uint256",
          "name": "txId",
          "type": "uint256"
        },
        {
          "indexed": true,
          "internalType": "address",
          "name": "to",
          "type": "address"
        },
        {
          "indexed": false,
          "internalType": "uint256",
          "name": "value",
          "type": "uint256"
        }
      ],
      "name": "TransactionSubmitted",
      "type": "event"
    },
    {
      "inputs": [
        {
          "internalType": "uint256",
          "name": "_txId",
          "type": "uint256"
        }
      ],
      "name": "confirmTransaction",
      "outputs": [],
      "stateMutability": "nonpayable",
      "type": "function"
    },
    {
      "inputs": [
        {
          "internalType": "uint256",
          "name": "_txId",
          "type": "uint256"
        }
      ],
      "name": "executeTransaction",
      "outputs": [],
      "stateMutability": "nonpayable",
      "type": "function"
    },
    {
      "inputs": [],
      "name": "getBalance",
      "outputs": [
        {
          "internalType": "uint256",
          "name": "",
          "type": "uint256"
        }
      ],
      "stateMutability": "view",
      "type": "function"
    },
    {
      "inputs": [
        {
          "internalType": "uint256",
          "name": "_txId",
          "type": "uint256"
        }
      ],
      "name": "getConfirmationCount",
      "outputs": [
        {
          "internalType": "uint256",
          "name": "",
          "type": "uint256"
        }
      ],
      "stateMutability": "view",
      "type": "function"
    },
    {
      "inputs": [],
      "name": "getOwners",
      "outputs": [
        {
          "internalType": "address[]",
          "name": "",
          "type": "address[]"
        }
      ],
      "stateMutability": "view",
      "type": "function"
    },
    {
      "inputs": [
        {
          "internalType": "uint256",
          "name": "_txId",
          "type": "uint256"
        }
      ],
      "name": "getTransaction",
      "outputs": [
        {
          "internalType": "address",
          "name": "to",
          "type": "address"
        },
        {
          "internalType": "uint256",
          "name": "value",
          "type": "uint256"
        },
        {
          "internalType": "bytes",
          "name": "data",
          "type": "bytes"
        },
        {
          "internalType": "bool",
          "name": "executed",
          "type": "bool"
        },
        {
          "internalType": "uint256",
          "name": "confirmationCount",
          "type": "uint256"
        }
      ],
      "stateMutability": "view",
      "type": "function"
    },
    {
      "inputs": [],
      "name": "getTransactionCount",
      "outputs": [
        {
          "internalType": "uint256",
          "name": "",
          "type": "uint256"
        }
      ],
      "stateMutability": "view",
      "type": "function"
    },
    {
      "inputs": [
        {
          "internalType": "uint256",
          "name": "_txId",
          "type": "uint256"
        },
        {
          "internalType": "address",
          "name": "_owner",
          "type": "address"
        }
      ],
      "name": "isConfirmedBy",
      "outputs": [
        {
          "internalType": "bool",
          "name": "",
          "type": "bool"
        }
      ],
      "stateMutability": "view",
      "type": "function"
    },
    {
      "inputs": [
        {
          "internalType": "address",
          "name": "",
          "type": "address"
        }
      ],
      "name": "isOwner",
      "outputs": [
        {
          "internalType": "bool",
          "name": "",
          "type": "bool"
        }
      ],
      "stateMutability": "view",
      "type": "function"
    },
    {
      "inputs": [
        {
          "internalType": "uint256",
          "name": "",
          "type": "uint256"
        }
      ],
      "name": "owners",
      "outputs": [
        {
          "internalType": "address",
          "name": "",
          "type": "address"
        }
      ],
      "stateMutability": "view",
      "type": "function"
    },
    {
      "inputs": [],
      "name": "requiredConfirmations",
      "outputs": [
        {
          "internalType": "uint256",
          "name": "",
          "type": "uint256"
        }
      ],
      "stateMutability": "view",
      "type": "function"
    },
    {
      "inputs": [
        {
          "internalType": "uint256",
          "name": "_txId",
          "type": "uint256"
        }
      ],
      "name": "revokeConfirmation",
      "outputs": [],
      "stateMutability": "nonpayable",
      "type": "function"
    },
    {
      "inputs": [
        {
          "internalType": "address",
          "name": "_to",
          "type": "address"
        },
        {
          "internalType": "uint256",
          "name": "_value",
          "type": "uint256"
        },
        {
          "internalType": "bytes",
          "name": "_data",
          "type": "bytes"
        }
      ],
      "name": "submitTransaction",
      "outputs": [
        {
          "internalType": "uint256",
          "name": "",
          "type": "uint256"
        }
      ],
      "stateMutability": "nonpayable",
      "type": "function"
    },
    {
      "inputs": [],
      "name": "transactionCount",
      "outputs": [
        {
          "internalType": "uint256",
          "name": "",
          "type": "uint256"
        }
      ],
      "stateMutability": "view",
      "type": "function"
    },
    {
      "inputs": [
        {
          "internalType": "uint256",
          "name": "",
          "type": "uint256"
        }
      ],
      "name": "transactions",
      "outputs": [
        {
          "internalType": "address",
          "name": "to",
          "type": "address"
        },
        {
          "internalType": "uint256",
          "name": "value",
          "type": "uint256"
        },
        {
          "internalType": "bytes",
          "name": "data",
          "type": "bytes"
        },
        {
          "internalType": "bool",
          "name": "executed",
          "type": "bool"
        },
        {
          "internalType": "uint256",
          "name": "confirmationCount",
          "type": "uint256"
        }
      ],
      "stateMutability": "view",
      "type": "function"
    },
    {
      "stateMutability": "payable",
      "type": "receive"
    }
  ],
  "bytecode": "0x608060405234801561001057600080fd5b50604051612095380380612095833981810160405281019061003291906104a0565b600082510361006d576040517f49e27cff00000000000000000000000000000000000000000000000000000000815260040160405180910390fd5b600081148061007c5750815181115b156100b3576040517f6312410b00000000000000000000000000000000000000000000000000000000815260040160405180910390fd5b60005b82518110156102905760008382815181106100d4576100d36104fc565b5b60200260200101519050600073ffffffffffffffffffffffffffffffffffffffff168173ffffffffffffffffffffffffffffffffffffffff1603610144576040517fd92e233d00000000000000000000000000000000000000000000000000000000815260040160405180910390fd5b600160008273ffffffffffffffffffffffffffffffffffffffff1673ffffffffffffffffffffffffffffffffffffffff16815260200190815260200160002060009054906101000a900460ff16156101c8576040517fbc7bc45400000000000000000000000000000000000000000000000000000000815260040160405180910390fd5b60018060008373ffffffffffffffffffffffffffffffffffffffff1673ffffffffffffffffffffffffffffffffffffffff16815260200190815260200160002060006101000a81548160ff0219169083151502179055506000819080600181540180825580915050600190039060005260206000200160009091909190916101000a81548173ffffffffffffffffffffffffffffffffffffffff021916908373ffffffffffffffffffffffffffffffffffffffff1602179055505080806001019150506100b6565b5080600281905550505061052b565b6000604051905090565b600080fd5b600080fd5b600080fd5b6000601f19601f8301169050919050565b7f4e487b7100000000000000000000000000000000000000000000000000000000600052604160045260246000fd5b610301826102b8565b810181811067ffffffffffffffff821117156103205761031f6102c9565b5b80604052505050565b600061033361029f565b905061033f82826102f8565b919050565b600067ffffffffffffffff82111561035f5761035e6102c9565b5b602082029050602081019050919050565b600080fd5b600073ffffffffffffffffffffffffffffffffffffffff82169050919050565b60006103a082610375565b9050919050565b6103b081610395565b81146103bb57600080fd5b50565b6000815190506103cd816103a7565b92915050565b60006103e66103e184610344565b610329565b9050808382526020820190506020840283018581111561040957610408610370565b5b835b81811015610432578061041e88826103be565b84526020840193505060208101905061040b565b5050509392505050565b600082601f830112610451576104506102b3565b5b81516104618482602086016103d3565b91505092915050565b6000819050919050565b61047d8161046a565b811461048857600080fd5b50565b60008151905061049a81610474565b92915050565b600080604083850312156104b7576104b66102a9565b5b600083015167ffffffffffffffff8111156104d5576104d46102ae565b5b6104e18582860161043c565b92505060206104f28582860161048b565b9150509250929050565b7f4e487b7100000000000000000000000000000000000000000000000000000000600052603260045260246000fd5b611b5b8061053a6000396000f3fe6080604052600436106100ec5760003560e01c80638a8e784c1161008a578063b77bf60011610059578063b77bf60014610391578063c01a8c84146103bc578063c6427474146103e5578063ee22610b1461042257610141565b80638a8e784c146102ab5780638b51d13f146102e85780639ace38c214610325578063a0e67e2b1461036657610141565b80632e7700f0116100c65780632e7700f0146101d75780632f54bf6e1461020257806333ea3dc81461023f57806382e717f71461028057610141565b8063025e7c271461014657806312065fe01461018357806320ea8d86146101ae57610141565b36610141573373ffffffffffffffffffffffffffffffffffffffff167fe1fffcc4923d04b559f4d29a8bfc6cda04eb5b0d3c460751c2402c5c5cc9109c3460405161013791906111e1565b60405180910390a2005b600080fd5b34801561015257600080fd5b5061016d6004803603810190610168919061123c565b61044b565b60405161017a91906112aa565b60405180910390f35b34801561018f57600080fd5b5061019861048a565b6040516101a591906111e1565b60405180910390f35b3480156101ba57600080fd5b506101d560048036038101906101d0919061123c565b610492565b005b3480156101e357600080fd5b506101ec61071b565b6040516101f991906111e1565b60405180910390f35b34801561020e57600080fd5b50610229600480360381019061022491906112f1565b610725565b6040516102369190611339565b60405180910390f35b34801561024b57600080fd5b506102666004803603810190610261919061123c565b610745565b6040516102779594939291906113e4565b60405180910390f35b34801561028c57600080fd5b50610295610886565b6040516102a291906111e1565b60405180910390f35b3480156102b757600080fd5b506102d260048036038101906102cd919061143e565b61088c565b6040516102df9190611339565b60405180910390f35b3480156102f457600080fd5b5061030f600480360381019061030a919061123c565b610934565b60405161031c91906111e1565b60405180910390f35b34801561033157600080fd5b5061034c6004803603810190610347919061123c565b610991565b60405161035d9594939291906113e4565b60405180910390f35b34801561037257600080fd5b5061037b610a7c565b604051610388919061153c565b60405180910390f35b34801561039d57600080fd5b506103a6610b0a565b6040516103b391906111e1565b60405180910390f35b3480156103c857600080fd5b506103e360048036038101906103de919061123c565b610b10565b005b3480156103f157600080fd5b5061040c60048036038101906104079190611693565b610d9a565b60405161041991906111e1565b60405180910390f35b34801561042e57600080fd5b506104496004803603810190610444919061123c565b610f35565b005b6000818154811061045b57600080fd5b906000526020600020016000915054906101000a900473ffffffffffffffffffffffffffffffffffffffff1681565b600047905090565b600160003373ffffffffffffffffffffffffffffffffffffffff1673ffffffffffffffffffffffffffffffffffffffff16815260200190815260200160002060009054906101000a900460ff16610515576040517f30cd747100000000000000000000000000000000000000000000000000000000815260040160405180910390fd5b806003548110610551576040517fefe697d100000000000000000000000000000000000000000000000000000000815260040160405180910390fd5b816004600082815260200190815260200160002060030160009054906101000a900460ff16156105ad576040517fdb5e659b00000000000000000000000000000000000000000000000000000000815260040160405180910390fd5b826004600082815260200190815260200160002060040160003373ffffffffffffffffffffffffffffffffffffffff1673ffffffffffffffffffffffffffffffffffffffff16815260200190815260200160002060009054906101000a900460ff16610645576040517ffdac7c0000000000000000000000000000000000000000000000000000000000815260040160405180910390fd5b600060046000868152602001908152602001600020905060008160040160003373ffffffffffffffffffffffffffffffffffffffff1673ffffffffffffffffffffffffffffffffffffffff16815260200190815260200160002060006101000a81548160ff0219169083151502179055508060050160008154809291906106cb90611731565b91905055503373ffffffffffffffffffffffffffffffffffffffff16857f4cd471041f6b9ff47536a54a3d3ab62d0fa9dd5e36c0418b294b1673acb3188160405160405180910390a35050505050565b6000600354905090565b60016020528060005260406000206000915054906101000a900460ff1681565b6000806060600080856003548110610789576040517fefe697d100000000000000000000000000000000000000000000000000000000815260040160405180910390fd5b60006004600089815260200190815260200160002090508060000160009054906101000a900473ffffffffffffffffffffffffffffffffffffffff168160010154826002018360030160009054906101000a900460ff1684600501548280546107f190611789565b80601f016020809104026020016040519081016040528092919081815260200182805461081d90611789565b801561086a5780601f1061083f5761010080835404028352916020019161086a565b820191906000526020600020905b81548152906001019060200180831161084d57829003601f168201915b5050505050925096509650965096509650505091939590929450565b60025481565b60008260035481106108ca576040517fefe697d100000000000000000000000000000000000000000000000000000000815260040160405180910390fd5b6004600085815260200190815260200160002060040160008473ffffffffffffffffffffffffffffffffffffffff1673ffffffffffffffffffffffffffffffffffffffff16815260200190815260200160002060009054906101000a900460ff1691505092915050565b6000816003548110610972576040517fefe697d100000000000000000000000000000000000000000000000000000000815260040160405180910390fd5b6004600084815260200190815260200160002060050154915050919050565b60046020528060005260406000206000915090508060000160009054906101000a900473ffffffffffffffffffffffffffffffffffffffff16908060010154908060020180546109e090611789565b80601f0160208091040260200160405190810160405280929190818152602001828054610a0c90611789565b8015610a595780601f10610a2e57610100808354040283529160200191610a59565b820191906000526020600020905b815481529060010190602001808311610a3c57829003601f168201915b5050505050908060030160009054906101000a900460ff16908060050154905085565b60606000805480602002602001604051908101604052809291908181526020018280548015610b0057602002820191906000526020600020905b8160009054906101000a900473ffffffffffffffffffffffffffffffffffffffff1673ffffffffffffffffffffffffffffffffffffffff1681526020019060010190808311610ab6575b5050505050905090565b60035481565b600160003373ffffffffffffffffffffffffffffffffffffffff1673ffffffffffffffffffffffffffffffffffffffff16815260200190815260200160002060009054906101000a900460ff16610b93576040517f30cd747100000000000000000000000000000000000000000000000000000000815260040160405180910390fd5b806003548110610bcf576040517fefe697d100000000000000000000000000000000000000000000000000000000815260040160405180910390fd5b816004600082815260200190815260200160002060030160009054906101000a900460ff1615610c2b576040517fdb5e659b00000000000000000000000000000000000000000000000000000000815260040160405180910390fd5b826004600082815260200190815260200160002060040160003373ffffffffffffffffffffffffffffffffffffffff1673ffffffffffffffffffffffffffffffffffffffff16815260200190815260200160002060009054906101000a900460ff1615610cc4576040517f4203265700000000000000000000000000000000000000000000000000000000815260040160405180910390fd5b600060046000868152602001908152602001600020905060018160040160003373ffffffffffffffffffffffffffffffffffffffff1673ffffffffffffffffffffffffffffffffffffffff16815260200190815260200160002060006101000a81548160ff021916908315150217905550806005016000815480929190610d4a906117ba565b91905055503373ffffffffffffffffffffffffffffffffffffffff16857f15c2f311c9e0f53b50388279894aeff029a3457884a6601e924fca879e12adcc60405160405180910390a35050505050565b6000600160003373ffffffffffffffffffffffffffffffffffffffff1673ffffffffffffffffffffffffffffffffffffffff16815260200190815260200160002060009054906101000a900460ff16610e1f576040517f30cd747100000000000000000000000000000000000000000000000000000000815260040160405180910390fd5b600060035490506000600460008381526020019081526020016000209050858160000160006101000a81548173ffffffffffffffffffffffffffffffffffffffff021916908373ffffffffffffffffffffffffffffffffffffffff16021790555084816001018190555083816002019081610e9a91906119ae565b5060008160030160006101000a81548160ff0219169083151502179055506000816005018190555060036000815480929190610ed5906117ba565b91905055508573ffffffffffffffffffffffffffffffffffffffff16827f6974e8be5912ae917b788db2884a51e71cbe0f0979af347e6a32d07d52ef82a387604051610f2191906111e1565b60405180910390a381925050509392505050565b600160003373ffffffffffffffffffffffffffffffffffffffff1673ffffffffffffffffffffffffffffffffffffffff16815260200190815260200160002060009054906101000a900460ff16610fb8576040517f30cd747100000000000000000000000000000000000000000000000000000000815260040160405180910390fd5b806003548110610ff4576040517fefe697d100000000000000000000000000000000000000000000000000000000815260040160405180910390fd5b816004600082815260200190815260200160002060030160009054906101000a900460ff1615611050576040517fdb5e659b00000000000000000000000000000000000000000000000000000000815260040160405180910390fd5b6000600460008581526020019081526020016000209050600254816005015410156110a7576040517fe16db4b300000000000000000000000000000000000000000000000000000000815260040160405180910390fd5b60018160030160006101000a81548160ff02191690831515021790555060008160000160009054906101000a900473ffffffffffffffffffffffffffffffffffffffff1673ffffffffffffffffffffffffffffffffffffffff168260010154836002016040516111179190611b0e565b60006040518083038185875af1925050503d8060008114611154576040519150601f19603f3d011682016040523d82523d6000602084013e611159565b606091505b5050905080611194576040517fbf961a2800000000000000000000000000000000000000000000000000000000815260040160405180910390fd5b847f15ed165a284872ea7017f03df402a0cadfbfab588320ffaf83f160c2f82781c760405160405180910390a25050505050565b6000819050919050565b6111db816111c8565b82525050565b60006020820190506111f660008301846111d2565b92915050565b6000604051905090565b600080fd5b600080fd5b611219816111c8565b811461122457600080fd5b50565b60008135905061123681611210565b92915050565b60006020828403121561125257611251611206565b5b600061126084828501611227565b91505092915050565b600073ffffffffffffffffffffffffffffffffffffffff82169050919050565b600061129482611269565b9050919050565b6112a481611289565b82525050565b60006020820190506112bf600083018461129b565b92915050565b6112ce81611289565b81146112d957600080fd5b50565b6000813590506112eb816112c5565b92915050565b60006020828403121561130757611306611206565b5b6000611315848285016112dc565b91505092915050565b60008115159050919050565b6113338161131e565b82525050565b600060208201905061134e600083018461132a565b92915050565b600081519050919050565b600082825260208201905092915050565b60005b8381101561138e578082015181840152602081019050611373565b60008484015250505050565b6000601f19601f8301169050919050565b60006113b682611354565b6113c0818561135f565b93506113d0818560208601611370565b6113d98161139a565b840191505092915050565b600060a0820190506113f9600083018861129b565b61140660208301876111d2565b818103604083015261141881866113ab565b9050611427606083018561132a565b61143460808301846111d2565b9695505050505050565b6000806040838503121561145557611454611206565b5b600061146385828601611227565b9250506020611474858286016112dc565b9150509250929050565b600081519050919050565b600082825260208201905092915050565b6000819050602082019050919050565b6114b381611289565b82525050565b60006114c583836114aa565b60208301905092915050565b6000602082019050919050565b60006114e98261147e565b6114f38185611489565b93506114fe8361149a565b8060005b8381101561152f57815161151688826114b9565b9750611521836114d1565b925050600181019050611502565b5085935050505092915050565b6000602082019050818103600083015261155681846114de565b905092915050565b600080fd5b600080fd5b7f4e487b7100000000000000000000000000000000000000000000000000000000600052604160045260246000fd5b6115a08261139a565b810181811067ffffffffffffffff821117156115bf576115be611568565b5b80604052505050565b60006115d26111fc565b90506115de8282611597565b919050565b600067ffffffffffffffff8211156115fe576115fd611568565b5b6116078261139a565b9050602081019050919050565b82818337600083830152505050565b6000611636611631846115e3565b6115c8565b90508281526020810184848401111561165257611651611563565b5b61165d848285611614565b509392505050565b600082601f83011261167a5761167961155e565b5b813561168a848260208601611623565b91505092915050565b6000806000606084860312156116ac576116ab611206565b5b60006116ba868287016112dc565b93505060206116cb86828701611227565b925050604084013567ffffffffffffffff8111156116ec576116eb61120b565b5b6116f886828701611665565b9150509250925092565b7f4e487b7100000000000000000000000000000000000000000000000000000000600052601160045260246000fd5b600061173c826111c8565b91506000820361174f5761174e611702565b5b600182039050919050565b7f4e487b7100000000000000000000000000000000000000000000000000000000600052602260045260246000fd5b600060028204905060018216806117a157607f821691505b6020821081036117b4576117b361175a565b5b50919050565b60006117c5826111c8565b91507fffffffffffffffffffffffffffffffffffffffffffffffffffffffffffffffff82036117f7576117f6611702565b5b600182019050919050565b60008190508160005260206000209050919050565b60006020601f8301049050919050565b600082821b905092915050565b6000600883026118647fffffffffffffffffffffffffffffffffffffffffffffffffffffffffffffffff82611827565b61186e8683611827565b95508019841693508086168417925050509392505050565b6000819050919050565b60006118ab6118a66118a1846111c8565b611886565b6111c8565b9050919050565b6000819050919050565b6118c583611890565b6118d96118d1826118b2565b848454611834565b825550505050565b600090565b6118ee6118e1565b6118f98184846118bc565b505050565b5b8181101561191d576119126000826118e6565b6001810190506118ff565b5050565b601f8211156119625761193381611802565b61193c84611817565b8101602085101561194b578190505b61195f61195785611817565b8301826118fe565b50505b505050565b600082821c905092915050565b600061198560001984600802611967565b1980831691505092915050565b600061199e8383611974565b9150826002028217905092915050565b6119b782611354565b67ffffffffffffffff8111156119d0576119cf611568565b5b6119da8254611789565b6119e5828285611921565b600060209050601f831160018114611a185760008415611a06578287015190505b611a108582611992565b865550611a78565b601f198416611a2686611802565b60005b82811015611a4e57848901518255600182019150602085019450602081019050611a29565b86831015611a6b5784890151611a67601f891682611974565b8355505b6001600288020188555050505b505050505050565b600081905092915050565b60008154611a9881611789565b611aa28186611a80565b94506001821660008114611abd5760018114611ad257611b05565b60ff1983168652811515820286019350611b05565b611adb85611802565b60005b83811015611afd57815481890152600182019150602081019050611ade565b838801955050505b50505092915050565b6000611b1a8284611a8b565b91508190509291505056fea2646970667358221220570a8365190d69b2e17a2cf2af0d925aa8d406a494416772438f53d10080b9bc64736f6c634300081c0033",
  "linkReferences": {},
  "deployedLinkReferences": {}
}